:020000040800F2
:1000000010040020811400081712000819120008BB
:100010001B1200081D1200081F120008000000003B
:100020000000000000000000000000002112000895
:100030002312000800000000251200082712000803
:10004000B9140008BD140008C1140008C514000844
:10005000C9140008CD140008D1140008D5140008F4
:10006000D9140008DD140008E1140008E5140008A4
:10007000E9140008ED140008F1140008F514000854
:100080002F12000831120008F9140008FD140008AE
:100090000115000805150008091500080D150008D0
:1000A0001115000815150008191500081D15000880
:1000B0002115000825150008291500082D15000830
:1000C0003115000835150008391500083D150008E0
:1000D00041150008451500083312000849150008AD
:1000E0004D15000851150008551500085915000850
:1000F0005D15000861150008651500086915000800
:100100006D150008711500087515000879150008AF
:100110007D1500088115000885150008891500085F
:100120008D1500089115000895150008991500080F
:100130009D150008A1150008A5150008A9150008BF
:10014000AD150008B1150008B5150008B91500086F
:10015000BD150008C1150008C5150008C91500081F
:10016000CD150008D1150008D5150008D9150008CF
:10017000DD150008E1150008E51500080000000085
:10018000E9150008ED150008DFF880060068C0F3E7
:100190000220704740B2002809D4012110F01F024C
:1001A0009140DFF86C2640B2430942F823107047B3
:1001B00010B440B2002805D40A01DFF8583640B226
:1001C0001A5408E00A01DFF8503640B210F00F046C
:1001D000234403F8042C10BC704770B4030013F0E0
:1001E0000704D4F10706052E01D3042001E0D4F161
:1001F0000700261D072E01D2002500E0E51E01267E
:1002000016FA00F0401E0840A8400121A940491EEE
:100210001140084370BC7047DFF80006006850F0DA
:100220000100DFF8F81508607047DFF8F005006896
:10023000400810F001007047DFF8E005006850F05A
:100240000800DFF8D81508607047DFF8D015096896
:1002500031F0F0010143DFF8C42511607047DFF889
:10026000C015096831F47F4151EA0021DFF8B0255B
:1002700011607047DFF8AC150968890889000143EF
:10028000DFF8A02511607047DFF89805006810F0CE
:100290000C007047DFF88C15096831F0F00101435C
:1002A000DFF8802511607047DFF87815096831F4B0
:1002B000E0610143DFF86C2511607047DFF86415D9
:1002C000096831F460510143DFF858251160704727
:1002D000DFF85415096831EA104182B21143DFF8A2
:1002E00048251160704781B0DFF840150968014367
:1002F000DFF838251160DFF83415096801400091F6
:10030000009901B0704781B0DFF8241509680143F6
:10031000DFF81C251160DFF818150968014000910D
:10032000009901B07047DFF80C150968C908C900C9
:100330000143DFF8002511607047DFF8F80400681A
:1003400010F007007047DFF8F014096831F4C0615D
:100350000143DFF8E42411607047DFF8E00400682F
:10036000800A10F00100704710B4DFF8D4345B5CF1
:10037000C3181B68DFF8CC4423401343DFF8C044A4
:10038000645C0419236010BC704710B4DFF8B0340B
:100390005B5CC3181B6833F020031343DFF8A044F1
:1003A000645C0419236010BC704710B4DFF890340B
:1003B0005B5CC3181B6833F040031343DFF88044D1
:1003C000645C0419236010BC704710B4DFF870340B
:1003D0005B5CC3181B6833F080031343DFF8604491
:1003E000645C0419236010BC704710B4DFF850340B
:1003F0005B5CC3181B6833F440731343DFF840445D
:10040000645C0419236010BC704710B4DFF830340A
:100410005B5CC3181B6833F440631343DFF820446C
:10042000645C0419236010BC704710B4DFF810340A
:100430005B5CC3181B6833F440531343DFF800447C
:10044000645C0419236010BC704710B4DFF8F0330B
:100450005B5CC3185B681B0C1B041343DFF8E043B1
:10046000645C0419636010BC704730B410F1A803D9
:100470001B680F240D00EDB2AD00AC40A3430F2468
:100480000D00EDB2AD00AC4094FAA4F4B4FA84F4DB
:1004900012FA04F4234310F1A804236030BC70471F
:1004A000DFF89C23525C8218126852F00202DFF8D7
:1004B00090335B5CC3181A607047DFF88423525C8A
:1004C0008218126852F00802DD4B5B5CC3181A6098
:1004D0007047DB4A525C8218126832F00802D84B2F
:1004E0005B5CC3181A607047016851F0010101603C
:1004F0007047416831F490414160816831F02A01D0
:100500008160704750E8002F52F02002110040E84F
:100510000012002AF6D1704710B410F1080252E818
:10052000003F53F08003190010F1080343E8001462
:10053000002CF2D110BC70478162704780B5052154
:10054000C148FFF7C6FF11220521BF48FFF77DFF15
:100550000521BD48FFF7B1FFBC48FFF7DDFF01BD36
:1005600080B500F087F900F017F800F015F900F0F9
:10057000EBF800F04AF80521B348FFF791FFB348C4
:10058000FFF7C0FFB24800680028FBD00020B04948
:100590000860FFF7D3FFF5E780B50020FFF7C3FE43
:1005A000FFF7CBFE0028FBD14FF40070FFF7CBFE26
:1005B000FFF7D3FE0028FBD1FFF72EFEFFF735FE35
:1005C0000128FBD1FFF738FE6020FFF73EFE002038
:1005D000FFF745FE0020FFF74DFEFFF755FE002810
:1005E000FBD10020FFF756FE0020FFF75DFE002044
:1005F000FFF764FE974800F04FF90F2000F052F922
:10060000002801D000F034F901BD00B58DB006A876
:100610001C2100F079F968468F4991EC060B80ECBB
:10062000060B5FF44020FFF753FE5FF40030FFF746
:100630006AFE0820FFF757FE60200090022001901C
:1006400003200290002003900020049007200590D2
:100650006946824800F0DFF9022206217A48FFF756
:1006600004FF102206217848FFF77EFE00220621B3
:100670007548FFF7DAFE002206217348FFF785FE72
:10068000002206217048FFF790FE802206216E4866
:10069000FFF79BFE002206216B48FFF7A6FE002213
:1006A00006216948FFF7B1FE022205216648FFF7DF
:1006B000DCFE002205216448FFF756FE00220521DA
:1006C0006148FFF7B2FE002205215F48FFF75DFE9B
:1006D000002205215C48FFF768FE802205215A4868
:1006E000FFF773FE002205215748FFF77EFE002228
:1006F00005215548FFF789FEFFF746FD002200213E
:10070000FFF76BFD01002620FFF752FD2620FFF7C3
:1007100041FD5FF4E1300690002007900020089032
:10072000002009900C200A9000200B9000200C90D3
:1007300006A9464800F0DEF94448FFF7DAFE4348D0
:10074000FFF7D2FE0DB000BD80B54548006850F0FF
:100750000100434908604248006810F00100009021
:100760000098FFF711FD00220021FFF736FD010080
:100770001020FFF71DFD1020FFF70CFDFFF704FD13
:1007800000220021FFF729FD01001120FFF710FDD5
:100790001120FFF7FFFC01BD00B587B06846314965
:1007A00091EC060B80EC060B0220FFF79CFD10205D
:1007B000FFF799FD0820FFF796FD04212A48FFF76F
:1007C000BBFE4FF480712948FFF7B6FE042000906D
:1007D000012001900020029000200390002004904E
:1007E0006946214800F017F94FF48070009001200D
:1007F00001900020029000200390002004906946A0
:100800001A4800F008F907B000BD00000CED00E048
:1008100000E100E000E400E018ED00E0001002401C
:100820000410024008100240881002404C100240A0
:100830005810024000200240007000401470004038
:10084000A8140008EFBFFFFF000002400044004072
:100850009004002000093D002C140008000C004802
:1008600048100240441400080004004800100048EA
:1008700072B6FEE710B50024032000F0FDF90F204A
:1008800000F010F8002802D00120040001E000F080
:1008900021FA2000C0B210BD014908607047000075
:1008A0000400002038B50400002514480078002812
:1008B0001ED04FF47A7011490978B0FBF1F010495D
:1008C0000968B1FBF0F000F0F0F900280DD1102C10
:1008D00008D2002221005FF0FF3000F0D3F9094870
:1008E000046007E00120050004E00120050001E0AC
:1008F000012005002800C0B232BD00BF0800002062
:100900000400002000000020002200F003BA0000D4
:1009100030B4036891FAA1F4B4FA84F40325E4B284
:10092000640015FA04F4A34391FAA1F4B4FA84F430
:10093000E4B2640012FA04F42343036030BC70474D
:1009400010B443688B4302FB01F42343436010BCA3
:10095000704730B4836891FAA1F4B4FA84F40325A3
:10096000E4B2640015FA04F4A34391FAA1F4B4FAD2
:1009700084F4E4B2640012FA04F42343836030BCCC
:10098000704730B4C36891FAA1F4B4FA84F4032533
:10099000E4B2640015FA04F4A34391FAA1F4B4FAA2
:1009A00084F4E4B2640012FA04F42343C36030BC5C
:1009B000704730B4036A91FAA1F4B4FA84F40F25B5
:1009C000E4B2A40015FA04F4A34391FAA1F4B4FA32
:1009D00084F4E4B2A40012FA04F42343036230BCAA
:1009E000704730B4436A0C0A94FAA4F4B4FA84F45D
:1009F0000F25E4B2A40015FA04F4A3430C0A94FAF8
:100A0000A4F4B4FA84F4E4B2A40012FA04F4234384
:100A1000436230BC7047F8B504000D00286890FAB6
:100A2000A0F0B0FA80F006002868F040002832D02C
:100A300028680121B14008400700002F29D06868CC
:100A4000012802D06868022809D1AA68390020006C
:100A5000FFF77FFFEA6829682000FFF771FF2A6926
:100A600039002000FFF78DFF686802280CD1FF2FA6
:100A700005D86A6939002000FFF79BFF04E06A6926
:100A800039002000FFF7ADFF6A6839002000FFF74A
:100A90003FFF761CC8E70020F2BD0000006810F0A0
:100AA00001007047426832F440520A434260704786
:100AB000826832F440720A438260704770B4B2F5C3
:100AC000004F0FD15E0816EB4106B6FBF3F6B6B247
:100AD00034004FF6F07626403500C4F34206354325
:100AE000C56005E011EB5306B6FBF3F6B6B2C6607F
:100AF00070BC7047F8B504000D00012600272000E7
:100B0000FFF7CCFF002848D120682B4908406968CE
:100B10000843E968084329690843A9690843206034
:100B2000A9682000FFF7BEFF69692000FFF7C0FF3A
:100B30001C48844204D1032000F065F907001FE03F
:100B40001948844204D10C2000F05DF9070017E039
:100B50001648844204D1302000F055F907000FE018
:100B60001348844204D1C02000F0D8F9070007E000
:100B70001048844204D14FF4407000F0CFF90700D0
:100B8000002F0AD02868002807D0002006002B6814
:100B9000AA6939002000FFF791FF3000C0B2F2BD12
:100BA00000000000003801400044004000480040C0
:100BB000004C004000500040F369FFEF10F00702C6
:100BC0003D4B1B6819004FF6FF0319403B4B53EA9E
:100BD00002231943384B1960704737480068C0F347
:100BE0000220704710B440B2002804D40A01344BEC
:100BF00040B21A5407E00A01324B40B210F00F0421
:100C0000234403F8042C10BC704770B4030013F0A5
:100C10000704D4F10706052E01D3042001E0D4F126
:100C20000700261D072E01D2002500E0E51E012643
:100C300016FA00F0401E0840A8400121A940491EB4
:100C40001140084370BC704710B50400601EB0F13D
:100C5000807F01D301200EE0601E1B4908600F2138
:100C60005FF0FF30FFF7BEFF002018490860072043
:100C700017490860002010BD10B504002000FFF7E0
:100C80009DFF10BDF8B504000D0016000027FFF70A
:100C9000A4FF0700320029003800FFF7B6FF01006B
:100CA000200040B2FFF79EFFF1BD10B50400200008
:100CB000FFF7CAFF10BD00000CED00E00000FA05D0
:100CC00000E400E018ED00E014E000E018E000E0CF
:100CD00010E000E081B00D48006850F001000B49C1
:100CE00008600A48006810F0010000900098084869
:100CF000006850F08050064908600548006810F010
:100D000080500090009801B0704700BF6010024012
:100D10005810024000B500BF1300964694461039A3
:100D200028BFA0E80C50FAD85FEA417C28BF0CC06D
:100D300048BF40F8042BC90728BF20F8022B48BF42
:100D400000F8012B00BD0000DFF868030068800A8E
:100D500010F001007047DFF878030068400810F0D9
:100D600001007047DFF84C030068C00810F0010074
:100D70007047DFF84003006810F0F0007047DFF8BC
:100D80006C03006810F470607047DFF8640300685B
:100D900010F00C007047DFF85803006810F0F00006
:100DA0007047DFF84C03006810F4E0607047DFF82C
:100DB0004003006810F460507047DFF8381309688A
:100DC000014051EA00407047DFF8281309680140EC
:100DD00051EA00407047DFF8F003006810F00300AC
:100DE0007047DFF8E4030068C0F306207047DFF8BF
:100DF000D803006810F0C0607047DFF8CC030068CB
:100E000010F07000704738B504000025032C2AD17B
:100E10002000FFF7D2FF5FF44031401A1AD0401E85
:100E200004D0401E06D0401E0CD01BE000F0D8F8C5
:100E3000050071E0FFF788FF002802D0DFF88C037F
:100E4000050069E0FFF787FF002802D04FF400405B
:100E5000050061E000F0C4F800F01FF900F03AF975
:100E6000050059E058E00C2C2AD12000FFF7A5FF1F
:100E70005FF44021401A1AD0001F04D0001F06D092
:100E8000001F0CD01BE000F0ABF8050044E0FFF7BA
:100E90005BFF002802D0DFF8340305003CE0FFF7D9
:100EA0005AFF002802D04FF40040050034E000F063
:100EB00097F800F0F2F800F0FFF805002CE02BE0C6
:100EC000302C29D12000FFF778FF5FF44011401A41
:100ED0001AD0103804D0103806D010380CD01BE0CF
:100EE00000F07EF8050017E0FFF72EFF002802D083
:100EF000DFF8D80205000FE0FFF72DFF002802D031
:100F00004FF40040050007E000F06AF800F0C5F873
:100F100000F0D2F80500FFE7280032BD38B5040024
:100F20000025C02C29D12000FFF74EFF5FF44001BF
:100F3000401A1AD0403804D0403806D040380CD07F
:100F40001BE000F04DF8050017E0FFF7FDFE00285C
:100F500002D0DFF8780205000FE0FFF7FCFE002862
:100F600002D04FF40040050007E000F039F800F02F
:100F700094F800F0A1F80500FFE7B4F5407F2DD10B
:100F80002000FFF721FFB0F1407F1FD0DFF84012B3
:100F9000884207D0DFF83C12884207D0B0F1032F17
:100FA0000CD01BE000F01CF8050017E0FFF7CCFEAA
:100FB000002802D0DFF8140205000FE0FFF7CBFE97
:100FC000002802D04FF40040050007E000F008F8C8
:100FD00000F063F800F070F80500FFE7280032BD6C
:100FE00010B5FFF7D2FE002806D0042826D0082826
:100FF00028D00C282AD02DE0FFF7B4FE00280ED10F
:10100000FFF7B0FE002802D0FFF7B3FE01E0FFF7C4
:10101000B6FEDFF8C411000A51F820400DE0FFF7DA
:10102000A1FE002802D0FFF7A4FE01E0FFF7A7FE13
:10103000DFF8A411000951F820402CE0DFF88C0102
:10104000040028E0DFF89401040024E000F054F8E4
:10105000040020E0FFF786FE00280ED1FFF782FE95
:10106000002802D0FFF785FE01E0FFF788FEDFF8D9
:101070006811000A51F820400DE0FFF773FE0028C8
:1010800002D0FFF776FE01E0FFF779FEDFF84811A6
:10109000000951F82040200010BD10B50400FFF7F2
:1010A0007AFEDFF83C11C0F30310085CC440200056
:1010B00010BD00000010024010B50400FFF771FEE3
:1010C000DFF82011000A085CC440200010BD0000B9
:1010D0009010024010B50400FFF769FEDFF804111C
:1010E000C00A085CC440200010BD000094100240FB
:1010F000081002408810024070B5FFF76CFE040033
:10110000012C04D02CD3032C26D022D328E0FFF7C7
:1011100029FE00280ED1FFF725FE002802D0FFF798
:1011200028FE01E0FFF72BFEDFF8AC10000A51F8B3
:1011300020500DE0FFF716FE002802D0FFF719FE41
:1011400001E0FFF71CFEDFF89010000951F8205075
:1011500027E01E48050024E0DFF88000050020E0BD
:10116000FFF700FE00280ED1FFF7FCFD002802D09B
:10117000FFF7FFFD01E0FFF702FEDFF85C10000A59
:1011800051F820500DE0FFF7EDFD002802D0FFF7E9
:10119000F0FD01E0FFF7F3FDDFF83C10000951F826
:1011A0002050FFF72AFE0600FFF71BFE3109491CFD
:1011B000B5FBF1F100FB01F6FFF719FE400E401CF4
:1011C0004000B6FBF0F070BD0C1002400024F400AB
:1011D00000010003000200031C13000800127A0043
:1011E00070140008B0140008C06910F001007047C6
:1011F000C069400810F001007047C069C00810F0D5
:1012000001007047C069400910F001007047808CF0
:10121000C005C00D7047FEE7FEE7FEE7FEE7FEE70C
:1012200070477047704780B500F04CF801BD7047BB
:10123000704780B51F48FFF7E0FF002806D01D4823
:10124000FFF7E5FF00201C49087032E01948FFF75E
:10125000CBFF002806D01748FFF7D9FF002016491A
:10126000087026E01348FFF7C3FF002806D0114896
:10127000FFF7CDFF0020104908701AE00D48FFF776
:10128000C1FF002815D00B48FFF7C1FF0B490A4AE0
:101290001278885408480078401C074908700648AE
:1012A0000078052805DB0020034908700120044967
:1012B000086001BD00440040980400201004002094
:1012C0009004002003480068034909784018014948
:1012D00008607047940400200800002019E050F8CE
:1012E000041BCB0744BFA9F101035918121F0023A7
:1012F000042A41F8043BF9D25FEA827C0B4604D50C
:101300004FF0000CA1F800C09B1CD10744BF002186
:10131000197050F8042B002AE1D17047A086010013
:10132000400D0300801A060000350C0040420F00FB
:1013300080841E0000093D0000127A000024F400A1
:1013400000366E010048E801006CDC0210B450F871
:10135000041B79B10268436802440830DC0744BFCB
:10136000A9F10104E31852F8044B43F8044B091F98
:10137000F9D1ECE710BC704710B507497944183132
:10138000064C7C44163404E00A68081D1144884762
:101390000146A142F8D110BD2C0000004C00000015
:1013A0004EF68851CEF20001086840F470000860E3
:1013B000BFF34F8FBFF36F8F4FF00070E1EE100A55
:1013C0007047000019FFFFFF8C0000001004002090
:1013D0000000000079FFFFFF0C000000C0000000CB
:1013E000000000200000000000F00BF8002801D0F1
:1013F000FFF7C2FF0020AFF30080FFF7B1F800F065
:1014000002F80120704700F001B800000746384696
:1014100000F002F8FBE7000080B5AFF30080024A5D
:1014200011001820ABBEFBE7260002000000000000
:1014300000000000000000000000000000000000AC
:10144000000000000000000000000000000000009C
:1014500000000000000000000000000003480068D9
:1014600050F47000014908607047000088ED00E00A
:101470000000000000000000010203040607080944
:1014800001488047014800475D1400089114000896
:10149000AFF30080FFF784FFFFF7A6FF1000000006
:1014A00000093D0001000000081C3044586C800019
:1014B0000000000001020304FFF7FEBFFFF7FEBFBC
:1014C000FFF7FEBFFFF7FEBFFFF7FEBFFFF7FEBF50
:1014D000FFF7FEBFFFF7FEBFFFF7FEBFFFF7FEBF40
:1014E000FFF7FEBFFFF7FEBFFFF7FEBFFFF7FEBF30
:1014F000FFF7FEBFFFF7FEBFFFF7FEBFFFF7FEBF20
:10150000FFF7FEBFFFF7FEBFFFF7FEBFFFF7FEBF0F
:10151000FFF7FEBFFFF7FEBFFFF7FEBFFFF7FEBFFF
:10152000FFF7FEBFFFF7FEBFFFF7FEBFFFF7FEBFEF
:10153000FFF7FEBFFFF7FEBFFFF7FEBFFFF7FEBFDF
:10154000FFF7FEBFFFF7FEBFFFF7FEBFFFF7FEBFCF
:10155000FFF7FEBFFFF7FEBFFFF7FEBFFFF7FEBFBF
:10156000FFF7FEBFFFF7FEBFFFF7FEBFFFF7FEBFAF
:10157000FFF7FEBFFFF7FEBFFFF7FEBFFFF7FEBF9F
:10158000FFF7FEBFFFF7FEBFFFF7FEBFFFF7FEBF8F
:10159000FFF7FEBFFFF7FEBFFFF7FEBFFFF7FEBF7F
:1015A000FFF7FEBFFFF7FEBFFFF7FEBFFFF7FEBF6F
:1015B000FFF7FEBFFFF7FEBFFFF7FEBFFFF7FEBF5F
:1015C000FFF7FEBFFFF7FEBFFFF7FEBFFFF7FEBF4F
:1015D000FFF7FEBFFFF7FEBFFFF7FEBFFFF7FEBF3F
:1015E000FFF7FEBFFFF7FEBFFFF7FEBFFFF7FEBF2F
:04000005080014914A
:00000001FF
